{
  "contractName": "SavingPlatform",
  "abi": [
    {
      "inputs": [
        {
          "internalType": "address",
          "name": "_usdtToken",
          "type": "address"
        },
        {
          "internalType": "address",
          "name": "_owner",
          "type": "address"
        }
      ],
      "stateMutability": "nonpayable",
      "type": "constructor"
    },
    {
      "inputs": [
        {
          "internalType": "address",
          "name": "owner",
          "type": "address"
        }
      ],
      "name": "OwnableInvalidOwner",
      "type": "error"
    },
    {
      "inputs": [
        {
          "internalType": "address",
          "name": "account",
          "type": "address"
        }
      ],
      "name": "OwnableUnauthorizedAccount",
      "type": "error"
    },
    {
      "inputs": [],
      "name": "ReentrancyGuardReentrantCall",
      "type": "error"
    },
    {
      "anonymous": false,
      "inputs": [
        {
          "indexed": true,
          "internalType": "address",
          "name": "user",
          "type": "address"
        },
        {
          "indexed": false,
          "internalType": "uint256",
          "name": "amount",
          "type": "uint256"
        },
        {
          "indexed": false,
          "internalType": "uint256",
          "name": "period",
          "type": "uint256"
        }
      ],
      "name": "Deposited",
      "type": "event"
    },
    {
      "anonymous": false,
      "inputs": [
        {
          "indexed": true,
          "internalType": "address",
          "name": "user",
          "type": "address"
        },
        {
          "indexed": false,
          "internalType": "uint8",
          "name": "generation",
          "type": "uint8"
        }
      ],
      "name": "GenerationLog",
      "type": "event"
    },
    {
      "anonymous": false,
      "inputs": [
        {
          "indexed": true,
          "internalType": "address",
          "name": "user",
          "type": "address"
        },
        {
          "indexed": false,
          "internalType": "string",
          "name": "message",
          "type": "string"
        },
        {
          "indexed": false,
          "internalType": "uint256",
          "name": "value",
          "type": "uint256"
        }
      ],
      "name": "Log",
      "type": "event"
    },
    {
      "anonymous": false,
      "inputs": [
        {
          "indexed": true,
          "internalType": "address",
          "name": "previousOwner",
          "type": "address"
        },
        {
          "indexed": true,
          "internalType": "address",
          "name": "newOwner",
          "type": "address"
        }
      ],
      "name": "OwnershipTransferred",
      "type": "event"
    },
    {
      "anonymous": false,
      "inputs": [
        {
          "indexed": true,
          "internalType": "address",
          "name": "user",
          "type": "address"
        },
        {
          "indexed": false,
          "internalType": "uint256",
          "name": "reward",
          "type": "uint256"
        }
      ],
      "name": "RewardPaid",
      "type": "event"
    },
    {
      "anonymous": false,
      "inputs": [
        {
          "indexed": true,
          "internalType": "address",
          "name": "user",
          "type": "address"
        },
        {
          "indexed": false,
          "internalType": "uint256",
          "name": "amount",
          "type": "uint256"
        },
        {
          "indexed": false,
          "internalType": "uint256",
          "name": "reward",
          "type": "uint256"
        }
      ],
      "name": "Withdrawn",
      "type": "event"
    },
    {
      "inputs": [
        {
          "internalType": "address",
          "name": "",
          "type": "address"
        }
      ],
      "name": "balances",
      "outputs": [
        {
          "internalType": "uint256",
          "name": "",
          "type": "uint256"
        }
      ],
      "stateMutability": "view",
      "type": "function"
    },
    {
      "inputs": [],
      "name": "owner",
      "outputs": [
        {
          "internalType": "address",
          "name": "",
          "type": "address"
        }
      ],
      "stateMutability": "view",
      "type": "function"
    },
    {
      "inputs": [],
      "name": "renounceOwnership",
      "outputs": [],
      "stateMutability": "nonpayable",
      "type": "function"
    },
    {
      "inputs": [
        {
          "internalType": "address",
          "name": "newOwner",
          "type": "address"
        }
      ],
      "name": "transferOwnership",
      "outputs": [],
      "stateMutability": "nonpayable",
      "type": "function"
    },
    {
      "inputs": [],
      "name": "usdtToken",
      "outputs": [
        {
          "internalType": "contract IERC20",
          "name": "",
          "type": "address"
        }
      ],
      "stateMutability": "view",
      "type": "function"
    },
    {
      "inputs": [
        {
          "internalType": "address",
          "name": "",
          "type": "address"
        },
        {
          "internalType": "uint256",
          "name": "",
          "type": "uint256"
        }
      ],
      "name": "userAllGenerations",
      "outputs": [
        {
          "internalType": "uint8",
          "name": "",
          "type": "uint8"
        }
      ],
      "stateMutability": "view",
      "type": "function"
    },
    {
      "inputs": [
        {
          "internalType": "address",
          "name": "",
          "type": "address"
        },
        {
          "internalType": "uint256",
          "name": "",
          "type": "uint256"
        }
      ],
      "name": "userAllInvitees",
      "outputs": [
        {
          "internalType": "address",
          "name": "",
          "type": "address"
        }
      ],
      "stateMutability": "view",
      "type": "function"
    },
    {
      "inputs": [
        {
          "internalType": "address",
          "name": "",
          "type": "address"
        },
        {
          "internalType": "uint256",
          "name": "",
          "type": "uint256"
        }
      ],
      "name": "userGenerations",
      "outputs": [
        {
          "internalType": "uint8",
          "name": "",
          "type": "uint8"
        }
      ],
      "stateMutability": "view",
      "type": "function"
    },
    {
      "inputs": [
        {
          "internalType": "address",
          "name": "",
          "type": "address"
        },
        {
          "internalType": "uint256",
          "name": "",
          "type": "uint256"
        }
      ],
      "name": "userInvitees",
      "outputs": [
        {
          "internalType": "address",
          "name": "",
          "type": "address"
        }
      ],
      "stateMutability": "view",
      "type": "function"
    },
    {
      "inputs": [
        {
          "internalType": "address",
          "name": "",
          "type": "address"
        }
      ],
      "name": "users",
      "outputs": [
        {
          "internalType": "address",
          "name": "referrer",
          "type": "address"
        },
        {
          "internalType": "uint256",
          "name": "rewardBalance",
          "type": "uint256"
        },
        {
          "internalType": "uint8",
          "name": "generation",
          "type": "uint8"
        },
        {
          "internalType": "uint256",
          "name": "circulation",
          "type": "uint256"
        }
      ],
      "stateMutability": "view",
      "type": "function"
    },
    {
      "inputs": [
        {
          "internalType": "address",
          "name": "user",
          "type": "address"
        }
      ],
      "name": "getUserTotalDeposits",
      "outputs": [
        {
          "internalType": "uint256",
          "name": "",
          "type": "uint256"
        }
      ],
      "stateMutability": "view",
      "type": "function"
    },
    {
      "inputs": [
        {
          "internalType": "uint256",
          "name": "amount",
          "type": "uint256"
        },
        {
          "internalType": "uint256",
          "name": "period",
          "type": "uint256"
        },
        {
          "internalType": "address",
          "name": "referrer",
          "type": "address"
        }
      ],
      "name": "deposit",
      "outputs": [],
      "stateMutability": "nonpayable",
      "type": "function"
    },
    {
      "inputs": [
        {
          "internalType": "uint256",
          "name": "orderId",
          "type": "uint256"
        }
      ],
      "name": "withdraw",
      "outputs": [],
      "stateMutability": "nonpayable",
      "type": "function"
    },
    {
      "inputs": [
        {
          "internalType": "address",
          "name": "user",
          "type": "address"
        }
      ],
      "name": "getUserInvitees",
      "outputs": [
        {
          "internalType": "address[]",
          "name": "invitees",
          "type": "address[]"
        },
        {
          "internalType": "uint8[]",
          "name": "generations",
          "type": "uint8[]"
        }
      ],
      "stateMutability": "view",
      "type": "function"
    },
    {
      "inputs": [
        {
          "internalType": "address",
          "name": "user",
          "type": "address"
        },
        {
          "internalType": "uint256",
          "name": "orderId",
          "type": "uint256"
        }
      ],
      "name": "getUserOrder",
      "outputs": [
        {
          "components": [
            {
              "internalType": "uint256",
              "name": "amount",
              "type": "uint256"
            },
            {
              "internalType": "uint256",
              "name": "startTime",
              "type": "uint256"
            },
            {
              "internalType": "uint256",
              "name": "period",
              "type": "uint256"
            },
            {
              "internalType": "bool",
              "name": "completed",
              "type": "bool"
            }
          ],
          "internalType": "struct SavingPlatform.Order",
          "name": "",
          "type": "tuple"
        }
      ],
      "stateMutability": "view",
      "type": "function"
    },
    {
      "inputs": [
        {
          "internalType": "address",
          "name": "user",
          "type": "address"
        }
      ],
      "name": "getUserOrders",
      "outputs": [
        {
          "internalType": "uint256[]",
          "name": "amounts",
          "type": "uint256[]"
        },
        {
          "internalType": "uint256[]",
          "name": "startTimes",
          "type": "uint256[]"
        },
        {
          "internalType": "uint256[]",
          "name": "periods",
          "type": "uint256[]"
        },
        {
          "internalType": "bool[]",
          "name": "completeds",
          "type": "bool[]"
        }
      ],
      "stateMutability": "view",
      "type": "function"
    },
    {
      "inputs": [
        {
          "internalType": "uint256",
          "name": "amount",
          "type": "uint256"
        }
      ],
      "name": "withdrawFunds",
      "outputs": [],
      "stateMutability": "nonpayable",
      "type": "function"
    }
  ],
  "bytecode": "0x60806040523480156200001157600080fd5b5060405162001a0938038062001a0983398101604081905262000034916200010b565b6001600055806001600160a01b0381166200006957604051631e4fbdf760e01b81526000600482015260240160405180910390fd5b62000074816200009c565b5050600280546001600160a01b0319166001600160a01b039290921691909117905562000143565b600180546001600160a01b038381166001600160a01b0319831681179093556040519116919082907f8be0079c531659141344cd1fd0a4f28419497f9722a3daafe3b4186f6b6457e090600090a35050565b80516001600160a01b03811681146200010657600080fd5b919050565b600080604083850312156200011f57600080fd5b6200012a83620000ee565b91506200013a60208401620000ee565b90509250929050565b6118b680620001536000396000f3fe608060405234801561001057600080fd5b506004361061010b5760003560e01c8063744586a5116100a2578063a87430ba11610071578063a87430ba14610267578063a98ad46c146102e0578063cd1afc1b146102f3578063e235a3d61461033b578063f2fde38b1461034e57600080fd5b8063744586a5146101f95780637e3abeea1461021a5780638da5cb5b146102435780638dbdbe6d1461025457600080fd5b80633f2b2e10116100de5780633f2b2e10146101905780633fc3fda1146101a357806363c69f08146101ce578063715018a6146101f157600080fd5b8063155dd5ee1461011057806327e235e3146101255780632e1a7d4d146101585780633d7024121461016b575b600080fd5b61012361011e36600461153d565b610361565b005b610145610133366004611572565b60046020526000908152604090205481565b6040519081526020015b60405180910390f35b61012361016636600461153d565b61045b565b61017e610179366004611594565b610890565b60405160ff909116815260200161014f565b61017e61019e366004611594565b6108d3565b6101b66101b1366004611594565b6108ef565b6040516001600160a01b03909116815260200161014f565b6101e16101dc366004611572565b610927565b60405161014f94939291906115f9565b610123610b44565b61020c610207366004611572565b610b58565b60405161014f929190611679565b610145610228366004611572565b6001600160a01b031660009081526004602052604090205490565b6001546001600160a01b03166101b6565b610123610262366004611700565b610c4f565b6102ae610275366004611572565b600360208190526000918252604090912060018101546002820154928201546004909201546001600160a01b03909116929160ff169084565b604080516001600160a01b039095168552602085019390935260ff90911691830191909152606082015260800161014f565b6002546101b6906001600160a01b031681565b610306610301366004611594565b610fc2565b60405161014f919081518152602080830151908201526040808301519082015260609182015115159181019190915260800190565b6101b6610349366004611594565b611068565b61012361035c366004611572565b611084565b6103696110bf565b6103716110ec565b6002546001600160a01b031663a9059cbb6103946001546001600160a01b031690565b6040516001600160e01b031960e084901b1681526001600160a01b039091166004820152602481018490526044016020604051808303816000875af11580156103e1573d6000803e3d6000fd5b505050506040513d601f19601f820116820180604052508101906104059190611735565b61044e5760405162461bcd60e51b815260206004820152601560248201527415da5d1a191c985dc8199d5b991cc819985a5b1959605a1b60448201526064015b60405180910390fd5b6104586001600055565b50565b6104636110ec565b33600090815260036020526040812080548390811061048457610484611757565b90600052602060002090600402019050336001600160a01b031660008051602061186183398151915282600101546040516104ea91906040808252600e908201526d4265666f7265207265717569726560901b6060820152602081019190915260800190565b60405180910390a2806002015481600101546105069190611783565b42101561054c5760405162461bcd60e51b815260206004820152601460248201527314195c9a5bd9081a185cc81b9bdd08195b99195960621b6044820152606401610445565b60028101543390600080516020611861833981519152906105709062015180611796565b836001015461057f9190611783565b6040516105bb9190604080825260129082015271416674657220706572696f6420636865636b60701b6060820152602081019190915260800190565b60405180910390a2600381015460ff16156106185760405162461bcd60e51b815260206004820152601760248201527f4f7264657220616c726561647920636f6d706c657465640000000000000000006044820152606401610445565b6040805181815260158183015274416674657220636f6d706c6574656420636865636b60581b60608201526000602082015290513391600080516020611861833981519152919081900360800190a2600061067b82600001548360020154611116565b82546106879190611783565b60038301805460ff191660011790556040519091503390600080516020611861833981519152906106e59084906040808252600f908201526e2132b337b932903a3930b739b332b960891b6060820152602081019190915260800190565b60405180910390a260025460405163a9059cbb60e01b8152336004820152602481018390526001600160a01b039091169063a9059cbb906044016020604051808303816000875af115801561073e573d6000803e3d6000fd5b505050506040513d601f19601f820116820180604052508101906107629190611735565b6107a05760405162461bcd60e51b815260206004820152600f60248201526e15da5d1a191c985dc819985a5b1959608a1b6044820152606401610445565b60408051818152600e818301526d20b33a32b9103a3930b739b332b960911b60608201526020810183905290513391600080516020611861833981519152919081900360800190a2336001600160a01b03167f92ccf450a286a957af52509bc1c9939d1a6a481783e142e41e2499f0bb66ebc68261082685600001548660020154611116565b6040805192835260208301919091520160405180910390a281543360009081526003602052604081206004018054909190610862908490611783565b925050819055506108843361087f84600001548560020154611116565b6111c6565b50506104586001600055565b600660205281600052604060002081815481106108ac57600080fd5b9060005260206000209060209182820401919006915091509054906101000a900460ff1681565b600860205281600052604060002081815481106108ac57600080fd5b6005602052816000526040600020818154811061090b57600080fd5b6000918252602090912001546001600160a01b03169150829050565b6001600160a01b038116600090815260036020526040902080546060918291829182918067ffffffffffffffff811115610963576109636117ad565b60405190808252806020026020018201604052801561098c578160200160208202803683370190505b5095508067ffffffffffffffff8111156109a8576109a86117ad565b6040519080825280602002602001820160405280156109d1578160200160208202803683370190505b5094508067ffffffffffffffff8111156109ed576109ed6117ad565b604051908082528060200260200182016040528015610a16578160200160208202803683370190505b5093508067ffffffffffffffff811115610a3257610a326117ad565b604051908082528060200260200182016040528015610a5b578160200160208202803683370190505b50925060005b81811015610b3a576000836000018281548110610a8057610a80611757565b906000526020600020906004020190508060000154888381518110610aa757610aa7611757565b6020026020010181815250508060010154878381518110610aca57610aca611757565b6020026020010181815250508060020154868381518110610aed57610aed611757565b60209081029190910101526003810154855160ff90911690869084908110610b1757610b17611757565b911515602092830291909101909101525080610b32816117c3565b915050610a61565b5050509193509193565b610b4c6110bf565b610b56600061141f565b565b6001600160a01b03811660009081526007602090815260408083206008835292819020835482518185028101850190935280835260609485949093918491830182828015610bcf57602002820191906000526020600020905b81546001600160a01b03168152600190910190602001808311610bb1575b5050505050915080805480602002602001604051908101604052809291908181526020018280548015610c3f57602002820191906000526020600020906000905b825461010083900a900460ff16815260206001928301818104948501949093039092029101808411610c105790505b5050505050905091509150915091565b610c576110ec565b6002546040516323b872dd60e01b8152336004820152306024820152604481018590526001600160a01b03909116906323b872dd906064016020604051808303816000875af1158015610cae573d6000803e3d6000fd5b505050506040513d601f19601f82011682018060405250810190610cd29190611735565b610d105760405162461bcd60e51b815260206004820152600f60248201526e151c985b9cd9995c8819985a5b1959608a1b6044820152606401610445565b336000908152600360205260409020600101546001600160a01b0316158015610d4257506001600160a01b0381163314155b15610e7b57336000908152600360208190526040808320600190810180546001600160a01b0319166001600160a01b038716908117909155845292200154610d8f9160ff909116906117dc565b3360008181526003602081815260408084208301805460ff191660ff9788161781556001600160a01b038816808652600584528286208054600181810183559188528588200180546001600160a01b0319168917905590865260068452918520938352548354918201845592845292819020908304018054601f9093166101000a808602199093169190941690910217909155610e2b90611471565b3360008181526003602081815260409283902090910154915160ff90921682527fbb5bfc3dc214ebd197337eeae4a2c873a413ed2cea5099529bd37f32b48ab4ee910160405180910390a2610e97565b33600090815260036020819052604090912001805460ff191690555b3360009081526003602052604081206004018054859290610eb9908490611783565b90915550503360009081526003602090815260409182902082516080810184528681524292810192909252918101610ef48562015180611796565b81526000602091820181905283546001808201865594825282822084516004928302909101908155848401519581019590955560408085015160028701556060909401516003909501805460ff19169515159590951790945533815292905281208054859290610f65908490611783565b909155503390507f73a19dd210f1a7f902193214c0ee91dd35ee5b4d920cba8d519eca65a7b488ca84610f9b8562015180611796565b6040805192835260208301919091520160405180910390a2610fbd6001600055565b505050565b610fef60405180608001604052806000815260200160008152602001600081526020016000151581525090565b6001600160a01b038316600090815260036020526040902080548390811061101957611019611757565b60009182526020918290206040805160808101825260049093029091018054835260018101549383019390935260028301549082015260039091015460ff161515606082015290505b92915050565b6007602052816000526040600020818154811061090b57600080fd5b61108c6110bf565b6001600160a01b0381166110b657604051631e4fbdf760e01b815260006004820152602401610445565b6104588161141f565b6001546001600160a01b03163314610b565760405163118cdaa760e01b8152336004820152602401610445565b60026000540361110f57604051633ee5aeb560e01b815260040160405180910390fd5b6002600055565b60008082620151801480611128575082155b15611135575060286111a7565b8262093a800361114857506101906111a7565b82621275000361115b57506103b66111a7565b826224ea000361116e57506109606111a7565b60405162461bcd60e51b815260206004820152600e60248201526d125b9d985b1a59081c195c9a5bd960921b6044820152606401610445565b6127106111b48286611796565b6111be919061180b565b949350505050565b6001600160a01b0380831660009081526003602052604081206001908101549092169183905b6001600160a01b03841615801590611205575060118111155b15611417576001600160a01b0384166000908152600360205260409020600401546112398268056bc75e2d63100000611796565b81106113e35781600103611265576064611254846014611796565b61125e919061180b565b93506112b3565b8160020361127a57606461125484600a611796565b60646007831161128b57600161128e565b60025b61129990600561181f565b6112a69060ff1685611796565b6112b0919061180b565b93505b60025460405163a9059cbb60e01b81526001600160a01b03878116600483015260248201879052600092169063a9059cbb906044016020604051808303816000875af1158015611307573d6000803e3d6000fd5b505050506040513d601f19601f8201168201806040525081019061132b9190611735565b9050806113735760405162461bcd60e51b815260206004820152601660248201527514995dd85c99081d1c985b9cd9995c8819985a5b195960521b6044820152606401610445565b6001600160a01b0386166000908152600360205260408120600201805487929061139e908490611783565b90915550506040518581526001600160a01b038716907fe2403640ba68fed3a2f88b7557551d1993f84b99bb10ff833f0cf8db0c5e04869060200160405180910390a2505b6001600160a01b03948516600090815260036020526040902060010154909416938161140e816117c3565b925050506111ec565b505050505050565b600180546001600160a01b038381166001600160a01b0319831681179093556040519116919082907f8be0079c531659141344cd1fd0a4f28419497f9722a3daafe3b4186f6b6457e090600090a35050565b6001600160a01b038082166000908152600360205260409020600190810154909116905b6001600160a01b03821615610fbd576001600160a01b0391821660008181526007602090815260408083208054600180820183559185528385200180546001600160a01b0319168989161790558484526008835281842080548083018255908552838520848204018054601f9092166101000a60ff8181021990931692891602919091179055938352600390915290200154909116908061153581611841565b915050611495565b60006020828403121561154f57600080fd5b5035919050565b80356001600160a01b038116811461156d57600080fd5b919050565b60006020828403121561158457600080fd5b61158d82611556565b9392505050565b600080604083850312156115a757600080fd5b6115b083611556565b946020939093013593505050565b600081518084526020808501945080840160005b838110156115ee578151875295820195908201906001016115d2565b509495945050505050565b60808152600061160c60808301876115be565b60208382038185015261161f82886115be565b9150838203604085015261163382876115be565b8481036060860152855180825282870193509082019060005b8181101561166a57845115158352938301939183019160010161164c565b50909998505050505050505050565b604080825283519082018190526000906020906060840190828701845b828110156116bb5781516001600160a01b031684529284019290840190600101611696565b5050508381038285015284518082528583019183019060005b818110156116f357835160ff16835292840192918401916001016116d4565b5090979650505050505050565b60008060006060848603121561171557600080fd5b833592506020840135915061172c60408501611556565b90509250925092565b60006020828403121561174757600080fd5b8151801515811461158d57600080fd5b634e487b7160e01b600052603260045260246000fd5b634e487b7160e01b600052601160045260246000fd5b808201808211156110625761106261176d565b80820281158282048414176110625761106261176d565b634e487b7160e01b600052604160045260246000fd5b6000600182016117d5576117d561176d565b5060010190565b60ff81811683821601908111156110625761106261176d565b634e487b7160e01b600052601260045260246000fd5b60008261181a5761181a6117f5565b500490565b600060ff831680611832576118326117f5565b8060ff84160491505092915050565b600060ff821660ff81036118575761185761176d565b6001019291505056fefd33e90d0eac940755277aa91045b95664988beeeafc4ed7d1281a6d83afbc00a2646970667358221220764604d1ce05ea8e5cb18c58f7e0af9c5a123f6025ffb8570b6033217769394064736f6c63430008140033",
  "immutableReferences": {},
  "source": "// SPDX-License-Identifier: MIT\npragma solidity ^0.8.20;\n\nimport \"@openzeppelin/contracts/token/ERC20/IERC20.sol\";\nimport \"@openzeppelin/contracts/utils/ReentrancyGuard.sol\";\nimport \"@openzeppelin/contracts/access/Ownable.sol\";\n\ncontract SavingPlatform is ReentrancyGuard, Ownable {\n    IERC20 public usdtToken;\n\n    struct Order {\n        uint256 amount;\n        uint256 startTime;\n        uint256 period;\n        bool completed;\n    }\n\n    struct User {\n        Order[] orders;\n        address referrer;\n        uint256 rewardBalance;\n        uint8 generation;\n        uint256 circulation;\n        address[] invitees;\n    }\n\n    mapping(address => User) public users;\n    mapping(address => uint256) public balances;\n    mapping(address => address[]) public userInvitees;\n    mapping(address => uint8[]) public userGenerations;\n    mapping(address => address[]) public userAllInvitees;\n    mapping(address => uint8[]) public userAllGenerations;\n\n    event Deposited(address indexed user, uint256 amount, uint256 period);\n    event Withdrawn(address indexed user, uint256 amount, uint256 reward);\n    event RewardPaid(address indexed user, uint256 reward);\n    event Log(address indexed user, string message, uint256 value);\n    event GenerationLog(address indexed user, uint8 generation);\n\n    constructor(address _usdtToken, address _owner) Ownable(_owner) {\n        usdtToken = IERC20(_usdtToken);\n    }\n    function getUserTotalDeposits(\n        address user\n    ) external view returns (uint256) {\n        return balances[user];\n    }\n\n    function _updateAllInvitees(address user) internal {\n        address referrer = users[user].referrer;\n        uint8 gen = 1;\n        while (referrer != address(0)) {\n            userAllInvitees[referrer].push(user);\n            userAllGenerations[referrer].push(gen);\n            referrer = users[referrer].referrer;\n            gen++;\n        }\n    }\n\n    function deposit(\n        uint256 amount,\n        uint256 period,\n        address referrer\n    ) public nonReentrant {\n        require(\n            usdtToken.transferFrom(msg.sender, address(this), amount),\n            \"Transfer failed\"\n        );\n        if (\n            users[msg.sender].referrer == address(0) && referrer != msg.sender\n        ) {\n            users[msg.sender].referrer = referrer;\n            users[msg.sender].generation = users[referrer].generation + 1;\n            userInvitees[referrer].push(msg.sender);\n            userGenerations[referrer].push(users[msg.sender].generation);\n            _updateAllInvitees(msg.sender);\n            emit GenerationLog(msg.sender, users[msg.sender].generation); \n        } \n        else {\n            users[msg.sender].generation = 0;\n        }\n        users[msg.sender].circulation += amount;\n        users[msg.sender].orders.push(\n            Order({\n                amount: amount,\n                startTime: block.timestamp,\n                period: period * 1 days,\n                completed: false\n            })\n        );\n        balances[msg.sender] += amount;\n        emit Deposited(msg.sender, amount, period * 1 days);\n    }\n\n    function withdraw(uint256 orderId) public nonReentrant {\n        Order storage order = users[msg.sender].orders[orderId];\n        emit Log(msg.sender, \"Before require\", order.startTime);\n        require(\n            block.timestamp >= order.startTime + order.period,\n            \"Period has not ended\"\n        );\n        emit Log(\n            msg.sender,\n            \"After period check\",\n            order.startTime + order.period * 1 days\n        );\n        require(!order.completed, \"Order already completed\");\n        emit Log(msg.sender, \"After completed check\", 0);\n        uint256 payoutAmount = order.amount + calculateInterest(order.amount, order.period);\n        order.completed = true;\n        emit Log(msg.sender, \"Before transfer\", payoutAmount);\n        require(\n            usdtToken.transfer(msg.sender, payoutAmount),\n            \"Withdraw failed\"\n        );\n        emit Log(msg.sender, \"After transfer\", payoutAmount);\n        emit Withdrawn(\n            msg.sender,\n            payoutAmount,\n            calculateInterest(order.amount, order.period)\n        );\n        users[msg.sender].circulation += order.amount;\n        payReferralReward(\n            msg.sender,\n            calculateInterest(order.amount, order.period)\n        );\n    }\n    \n    function payReferralReward(address user, uint256 amount) internal {\n        address referrer = users[user].referrer;\n        uint256 reward;\n        uint256 totalReward = amount;\n        uint256 i = 1;\n\n        while (referrer != address(0) && i <= 17) {\n            uint256 referrerCirculation = users[referrer].circulation;\n\n            if (referrerCirculation >= i * 100e18) {\n                if (i == 1) {\n                    reward = (totalReward * 20) / 100;\n                } else if (i == 2) {\n                    reward = (totalReward * 10) / 100;\n                } else {\n                    reward = (totalReward * (5 / (i > 7 ? 2 : 1))) / 100;\n                }\n\n                bool transferSuccess = usdtToken.transfer(referrer, reward);\n                if (!transferSuccess) {\n                    revert(\"Reward transfer failed\");\n                }\n\n                users[referrer].rewardBalance += reward;\n                emit RewardPaid(referrer, reward);\n            }\n\n            referrer = users[referrer].referrer;\n            i++;\n        }\n    }\n\n    function calculateInterest(\n        uint256 amount,\n        uint256 period\n    ) private pure returns (uint256) {\n        uint256 interestRate;\n        if (period == 1 days || period == 0 days) {\n            interestRate = 40; // 0.40% \n        } else if (period == 7 days) {\n            interestRate = 400; // 4%\n        } else if (period == 14 days) {\n            interestRate = 950; // 9.50%\n        } else if (period == 28 days) {\n            interestRate = 2400; // 24%\n        } else {\n            revert(\"Invalid period\");\n        }\n\n        return (amount * interestRate) / 10000;\n    }\n\n    function getUserInvitees(\n        address user\n    ) external view returns (address[] memory invitees, uint8[] memory generations) {\n        return (userAllInvitees[user], userAllGenerations[user]);\n    }\n\n    function getUserOrder(\n        address user,\n        uint256 orderId\n    ) external view returns (Order memory) {\n        return users[user].orders[orderId];\n    }\n\n    function getUserOrders(\n        address user\n    )\n        external\n        view\n        returns (\n            uint256[] memory amounts,\n            uint256[] memory startTimes,\n            uint256[] memory periods,\n            bool[] memory completeds\n        )\n    {\n        User storage userData = users[user];\n        uint256 orderCount = userData.orders.length;\n\n        amounts = new uint256[](orderCount);\n        startTimes = new uint256[](orderCount);\n        periods = new uint256[](orderCount);\n        completeds = new bool[](orderCount);\n\n        for (uint256 i = 0; i < orderCount; i++) {\n            Order storage order = userData.orders[i];\n            amounts[i] = order.amount;\n            startTimes[i] = order.startTime;\n            periods[i] = order.period;\n            completeds[i] = order.completed;\n        }\n\n        return (amounts, startTimes, periods, completeds);\n    }\n\n    function withdrawFunds(uint256 amount) external onlyOwner nonReentrant {\n        require(usdtToken.transfer(owner(), amount), \"Withdraw funds failed\");\n    }\n\n    function uint2str(\n        uint _i\n    ) internal pure returns (string memory _uintAsString) {\n        if (_i == 0) {\n            return \"0\";\n        }\n        uint j = _i;\n        uint len;\n        while (j != 0) {\n            len++;\n            j /= 10;\n        }\n        bytes memory bstr = new bytes(len);\n        uint k = len;\n        while (_i != 0) {\n            k = k - 1;\n            uint8 temp = (48 + uint8(_i - (_i / 10) * 10));\n            bytes1 b1 = bytes1(temp);\n            bstr[k] = b1;\n            _i /= 10;\n        }\n        return string(bstr);\n    }\n}\n",
  "sourcePath": "/Users/yosgi/freelancer/bitnestLoop/contracts/contracts/SavingPlatform.sol",
  "compiler": {
    "name": "solc",
    "version": "0.8.20+commit.a1b79de6.Emscripten.clang"
  },
  "schemaVersion": "3.4.16",
  "updatedAt": "2024-07-19T23:43:34.414Z",
  "devdoc": {
    "errors": {
      "OwnableInvalidOwner(address)": [
        {
          "details": "The owner is not a valid owner account. (eg. `address(0)`)"
        }
      ],
      "OwnableUnauthorizedAccount(address)": [
        {
          "details": "The caller account is not authorized to perform an operation."
        }
      ],
      "ReentrancyGuardReentrantCall()": [
        {
          "details": "Unauthorized reentrant call."
        }
      ]
    },
    "kind": "dev",
    "methods": {
      "owner()": {
        "details": "Returns the address of the current owner."
      },
      "renounceOwnership()": {
        "details": "Leaves the contract without owner. It will not be possible to call `onlyOwner` functions. Can only be called by the current owner. NOTE: Renouncing ownership will leave the contract without an owner, thereby disabling any functionality that is only available to the owner."
      },
      "transferOwnership(address)": {
        "details": "Transfers ownership of the contract to a new account (`newOwner`). Can only be called by the current owner."
      }
    },
    "version": 1
  },
  "userdoc": {
    "kind": "user",
    "methods": {},
    "version": 1
  }
}